:020000040000FA
:20000000005000207D150000751500005D1500007915000079150000791500000000000038
:20002000000000000000000000000000791500007915000000000000791500007915000088
:20004000ED3800007915000065DE000079150000A12F0000193400007915000079150000E3
:20006000791500008DDE000079150000791500007915000079150000791500007915000033
:200080007915000079150000791500007915000079150000791500007915000079150000F0
:2000A0007915000079150000791500007915000079150000791500007915000079150000D0
:2000C00079150000791500002DE9F04F048883B02CB100230380032003B0BDE8F08F6A4DBC
:2000E00002F0E8FFEE6A20460121B04721460420B047664F0E21664C0120B047AB6A0120EA
:200100006449984707F10409266807F1080807F1140B07F1180A1AE004200CF031FE2268B4
:200120005D4BD11783FB0263C1EBE30303EB83035A4980B2B2EB830F0880554E00F0958012
:20014000561C574800211922266010F08BF8324654494E4804F058F92168534B4FF47A70E5
:2001600083FB0123CA17C2EBA31200FB121333B3EB681921454898474C4B4D491A780023B9
:200180003B604A4EC9F80030C8F800300B604B60CBF800308AF800303B4BBAB1454B454A80
:2001A0001B68002B03DD013B1360002B54D02B693B48302198470028AEDC2268C0E7354B09
:2001C00032491A683C4804F001F9D1E71B693448302198470028F0DD04200CF0D1FD2F4A6C
:2001E00083B218B213800FF089FA014633480FF0CFF933490FF0CEF932490FF087FB0EF026
:200200005DFE00F0F1F91EA3D3E900230EF0AAFE0FF06AF90FF016FC01462B4804F0D6F874
:200220001E4BB3F900303233C7DB3378002BC4D1264B186802F096F9244B01221B68234914
:20024000643332701B4A0B6021484FF47A73136002F044FF226873E71E48019304F0B6F8D4
:2002600002F0D2F9019B3370A1E70A4B02B20C4919481B6804F0AAF8326861E7AFF300801E
:200280000000000080842E41C40601002804002098060020CC2900206766666688060020BA
:2002A000B429002028040100D34D621088290020340400209C060020380401000000A0407A
:2002C00014AE0342C3F518C15804010040040020780401009C040100B004010000000000F2
:2002E000294B1B689B0702D44FF000407047F0B5002083B0452102F0B7FC0DF10601012030
:2003000002220DF08FF938B901A802210DF0B4F94FF0004003B0F0BD0DF1060100200222A5
:200320000DF080F90028EFD0BDF806305BBA9CB2200BADF804300EF09FFD0EF041F90646F0
:20034000C4F30B000F460EF0A7FD0DA3D3E9002304460D46304639460EF004FE02460B462A
:20036000204629460EF0FEFD0FF0BEF807490FF019FA0FF067FB03B0F0BD00BFAFF30080F6
:200380007B14AE47E17A843F400700200000C84208B51F4B1B68032B33D1431E012B30D8D9
:2003A0001C4A1D4B012812881B8812D018460EF063FD0022194B0EF0D5FD0022184B0EF092
:2003C000D1FD0FF091F817490FF0ECF90FF03AFB08BD10B20EF060FD0022104B0EF0C2FD33
:2003E00009A3D3E900230EF0BDFD00220E4B0EF005FC0FF079F80B490FF0D4F90FF022FB94
:2004000008BD4FF0004008BD0000000000A064406407002076290020782900200000F03E56
:20042000000059400000C84200004440000000002DE9F041664B1B684BB1664B002210F04B
:20044000380604461A609A8006D142073ED14FF000463046BDE8F08102F016FD5E4D286008
:2004600007E002F011FD2A686FF009039B1AC34203D501F0C1FE0028F3D0584B1B78D90755
:20048000E5D5544D0120682102F0EEFB29463B2006220DF0C7F806460020014602F0E4FB4A
:2004A000002E7ED02F786E78A878E9782A796B79202C6F702E70E870A9706A712B715AD050
:2004C000102C65D0082C66D00026C2E702F0DCFC414D286007E002F0D7FC2A686FF00903E9
:2004E0009B1AC34203D501F087FE0028F3D03B4B1B78DB07ABD5374D0120682102F0B4FBBF
:200500002946432006220DF08DF8074600284DD095F8008095F801C095F802E0EF782A79F9
:200520006B790020014685F8018085F800C085F803E0AF706A712B7102F096FB042C06D0B6
:20054000022C2BD0012C84D1B5F9040001E0B5F900000EF0A1FC1CA3D3E900230EF02CFE4E
:200560000EF0C2FF1E490FF01DF90FF06BFA06463046BDE8F081B5F9000001F067FD1849A0
:200580000FF010F90FF05EFA06463046BDE8F081B5F90200F1E7B5F90400EEE7B5F9020065
:2005A000D7E7284606210DF067F850E7284606210DF062F83846394602F056FB4FF00046A4
:2005C00047E700BFAFF300800000000000606040940700206C070020E02900208D290020BF
:2005E0000000C842000000002DE9F0438BB006460F4600F075F8DFF8E480044698F9003029
:200600000D46013337D0304639460EF023FA002831D02BA3D3E90023304639460EF032FF42
:20062000814668BB28A3D3E90023304639460EF00BFF00B398F90030254C002000210422DD
:20064000022BCDF82090CDE90467CDE90267CDE906018DE814002CD068460EF02DFA40B3B0
:20066000089B1BB10FF0ECFC089B0360DDE906010BB0BDE8F083204629460BB0BDE8F083D6
:20068000134898F8003003210022CDE90467CDE902670190009108922BB90E4B4FF06042DF
:2006A000CDE90623D8E70C490020022BCDE90601D2D10FF0C5FC22230360D1E7AFF3008058
:2006C000EF39FAFE422E864051302DD5104987C0E0080100FFFFEF470000F07F8E06002061
:2006E0002DE9F04FB04D21F00042AA4283B00C464FEAD17682460DD9AC4DAA4225D9C1F31F
:200700001303034340F0F580002E40F0158103B0BDE8F08FA64B9A4200F2CC80A54B9A4236
:2007200000F2DD808AA3D3E900230EF069FA0022A14B0EF0A7FE002800F0088150462146AE
:2007400000229D4B0EF05CFAE1E783A3D3E900230EF098FE002840F0C48081A3D3E900233B
:20076000504621460EF070FE002840F0E5807EA3D3E90023914D504605EBC60521460EF0BF
:20078000F1FBD5E900230EF03BFA0EF085FE05460EF082FB76A3D3E9002306460F460EF07B
:2007A000E1FB02460B46504621460EF027FA72A3D3E90023CDE90001304639460EF0D2FB3D
:2007C00080468946DDE9000142464B460EF016FA82460C4652462346504621460EF0C2FBC3
:2007E00067A3D3E9002306460F460EF0BBFB66A3D3E900230EF002FA32463B460EF0B2FB35
:2008000063A3D3E900230EF0FBF932463B460EF0A9FB61A3D3E900230EF0F0F932463B46A3
:200820000EF0A0FB5EA3D3E900230EF0E9F932463B460EF097FB02460B46504621460EF042
:20084000DDF906460F465046214632463B46002D54D00EF087FB324682468B463B460020A8
:200860004FF080410EF0CAF902460B46504659460EF0A2FC02460B46404649460EF0BEF9EA
:20088000DDE900230EF0BAF90B4602464A4900200EF0B4F96FF47F739D4252DA05F57A757E
:2008A00001EB055100224FF0B8730EF05BFB03B0BDE8F08F424B9A423FF659AF414BF40019
:2008C0002344D3E900230EF099F93F4BC6F101051C44CDE90001D4E90089AD1B72E7002558
:2008E00078E71BA1D1E9000102460B460EF03AFB0DE702460B460EF083F908E70EF032FB35
:20090000002280468946304639464FF080430EF075F902460B46404649460EF04DFC524630
:2009200023460EF06BF902460B46002022490EF065F903B0BDE8F08F0020014603B0BDE8D6
:20094000F08F01EB055103B0BDE8F08F054641E79C7500883CE4377EEF39FAFE422E8640C8
:2009600051302DD5104987C0FE822B654715F73F0000E0FE422EE63F763C7935EF39EA3D90
:20098000D0A4BE726937663EF16BD2C541BDBB3E2CDE25AF6A56113F93BDBE166CC1663FA1
:2009A0003E5555555555C53F412E8640FFFFEF7F422ED63FFFFF2F3E0000F03FB0030100D8
:2009C000B1A2F03FD0030100C0030100000000002DE9F04F144623F00047024657EA040067
:2009E0000E468FB01D469C46214634D06E4B26F0004A9A459346B14626DC24D09F4223DC16
:200A0000694B9F4200F08F80B9F1000FC0F28F804FF0000879BB644B9F4200F0A580634BFA
:200A20009F4267D0BCF1804F00F0E283604B9C4521D1B9F1000F1EDB104631460FB0BDE86C
:200A4000F04F0DF03DBF62B10AF1404000F5801050EA0B0007D10346544918460FB0BDE886
:200A6000F08F5745CCDD53480FB0BDE8F04F0EF025B84FF0000810463146CDF808C0009266
:200A80000DF0E4FF009ADDF808C0BBF1000F20D04FEAD97909F1FF3958EA09037AD0464BAE
:200AA0009F4240F38F8003F104739F4240F31084424B9A4540F39283BCF1000F40F3928348
:200AC00037A1D1E900010B4602460EF04BFA0346C3E7BAF1000F04D0344B29F0404E9E451D
:200AE000D6D1BCF1000FC0F2B683B9F1000F08DB0346B2E7BCF1000FC0F252841346314616
:200B0000ABE70AF1404A0AF5801A58EA0A0340F05E8402460B460EF071F80B4602460EF02D
:200B20004BFB034699E700293FF46EAF8CE7244B9F422CDCA3F154739F427FF769AF40F266
:200B400013403B15834240F34B84C3F58663033321FA03F000FA03F38B427FF459AF00F01E
:200B60000100C0F1020855E70AF1404303F5801353EA0B0300F03983104B9A4540F3648329
:200B8000BCF1000FC0F22E832346294665E74FF002083FE7104631463346BCE7AFF3008098
:200BA0009C7500883CE4377E0000F07F0000F03F0000E03F980501000000E041FFFFEF3F1F
:200BC000FFFF3F43BAF5801F4FF0000205DACA4B0EF0C8F98A466FF034024FEA2A53C74E23
:200BE000CAF3130AA3F2FF334AF07F571344B2450C9347F4401740F3D083C14B9A4540F321
:200C000007840026B4460C9BA7F5801701330C933946BC4B4FEACC0C6344D3E900AB52463F
:200C20005B46CDF834C0CDE906010DF0E7FF52465B46CDE90801DDE906010DF0E1FF0246D0
:200C40000B460020B0490EF0B7FA02460B46DDE90801CDE90A230EF085F902460B46CDE965
:200C60000223CDE904237B1043F0005303F5002399190020002306460F460293DDE9022330
:200C80001046194632463B46CDE900010EF06AF902460B46DDE908010DF0B0FF5246CDE92C
:200CA00008015B46304639460DF0A8FF02460B46DDE906010DF0A2FF02460B46DDE900018D
:200CC0000EF050F902460B46DDE908010DF096FFDDE90A230EF046F9DDE90423CDE90601F9
:200CE000104619460EF03EF902460B4606460F460EF038F96EA3D3E9002382468B463046A2
:200D000039460EF02FF96CA3D3E900230DF078FF32463B460EF026F969A3D3E900230DF0CE
:200D20006FFF32463B460EF01DF967A3D3E900230DF066FF32463B460EF014F964A3D3E926
:200D400000230DF05DFF32463B460EF00BF962A3D3E900230DF054FF02460B46504659461A
:200D60000EF000F9DDE9042306460F46DDE900010DF046FFDDE906230EF0F4F832463B4613
:200D80000DF03EFFDDE9006782468B4632463B46304639460EF0E6F800225C4BCDE9080101
:200DA0000DF02EFF52465B460DF02AFF02980F460646DDE9000132463B460EF0D3F832466E
:200DC0003B46CDE90001DDE906010EF0CBF80022CDE906014D4B304639460DF00FFFDDE910
:200DE00008230DF00BFF02460B46504659460DF005FFDDE904230EF0B5F802460B46DDE9FB
:200E000006010DF0FDFE82468B46DDE9000152465B460DF0F5FE32A3D3E9002302980F46A7
:200E200006460EF09FF830A3D3E90023CDE90401304639460EF096F8DDE90023CDE906013D
:200E4000304639460DF0DAFE02460B46504659460DF0D4FE26A3D3E900230EF083F80246C2
:200E60000B46DDE906010DF0CBFEDDF834C0284BCDF818C06344D3E900230DF0C1FECDE9BD
:200E800000010C980EF008F806460F46DDE90401204BDDF818C09C44DDE90023DCE900ABF2
:200EA0000DF0AEFE52465B4636E000BFAFF30080EF4E454A287ECA3F65DBC9934A86CD3F66
:200EC00001411DA96074D13F4D268F515555D53FFFAB6FDBB66DDB3F033333333333E33FC0
:200EE000000000E009C7EE3FF5015B14E02F3EBEFD033ADC09C7EE3F000040438E980300E6
:200F000079B60B00000401000000F03F00000840F0030100E0030100CDE906AB0DF070FE71
:200F200032463B460DF06CFE029832463B4682468B460DF063FEDDE906230DF05FFEDDE9B8
:200F400004230DF05BFE02460B46DDE900010DF055FECDE9020108F1FF3858EA09030CBF62
:200F6000D54BD64B0022CDE904230023CDE900450093DDE90067204632463B4629460DF088
:200F80003DFE52465B460DF0EDFFDDE9022380468946204629460DF0E5FF02460B4640469F
:200FA00049460DF02DFE04460D465246304639465B46CDE902450DF0D5FF06460F462046DA
:200FC0003B46294632460DF01BFEBD4B824699428946884640F3138101F13F4303F5E00335
:200FE000034340F0E581A0A3D3E90023DDE902010DF006FE324604460D463B46504649466E
:201000000DF0FCFD02460B46204629460EF03AFA002840F0CD814C462015A0F2FE304FF4CA
:20102000801101414144C1F30A50A64CA0F2FF35C1F3130BC0F5826003302C414BF4801BAF
:2010400021EA040300224BFA00FB394630460DF0D5FD06460F46DDE902018BEAE87B0BEB20
:20106000D87B32463B464FEA0B5A0DF0C9FD80A3D3E90023002420460D460DF073FF3246FD
:20108000804689463B46204629460DF0B7FD02460B46DDE902010DF0B1FD77A3D3E90023AE
:2010A0000DF060FF76A3D3E9002306460F46204629460DF057FF02460B46304639460DF088
:2010C0009FFD06460F4632463B46404649460DF097FD42464B4604460D460DF08FFD0246AD
:2010E0000B46304639460DF089FD2246804689462B46204629460DF035FF63A3D3E90023CE
:2011000006460F460DF02EFF61A3D3E900230DF075FD32463B460DF025FF5FA3D3E90023B7
:201120000DF06EFD32463B460DF01CFF5CA3D3E900230DF063FD32463B460DF013FF5AA3F6
:20114000D3E900230DF05CFD32463B460DF00AFF02460B46204629460DF050FD06460F4602
:2011600032463B46204629460DF0FCFE0022CDE900014FF08043304639460DF03FFD024659
:201180000B46DDE900010EF017F8424606460F464B46204629460DF0E5FE42464B460DF0A5
:2011A0002FFD02460B46304639460DF027FD22462B460DF023FD02460B4600203F490DF020
:2011C0001DFD8A44BAF5801F0246C0F227815346DDE904010DF0C6FE03463EE4BCF1000FEB
:2011E000FFF66EAC0023194637E40B46334934E43346104631460DF0B5FE03462DE4324B91
:2012000021F000449C4240F3FA80304B0B4403430CD132463B460DF0F1FC02460B46DDE9BF
:2012200002010EF01BF900283FF4F6AE20A3D3E90023DDE904010DF095FE1DA3D3E90023FE
:201240000DF090FE034608E4BCF1000FCADA234605F1004101E402460B46002017490DF0D3
:20126000ABFF42E4AFF30080FE822B654715973C00000000432EE63FEF39FAFE422EE63FF2
:20128000396CA80C615C20BED0A4BE726937663EF16BD2C541BDBB3E2CDE25AF6A56113F9A
:2012A00093BDBE166CC1663F3E5555555555C53F59F3F8C21F6EA5010000F0BF0000F03F36
:2012C000FFFF8F40FFFF0F00FFCB904000346F3F634B9A4582DD634B9A453FF7EDAB00224F
:2012E000604B0DF08BFC54A3D3E9002306460F460DF038FE52A3D3E90023CDE90001304614
:2013000039460DF02FFE3246CDE902013B46304639460DF027FE002282468B4630463946AB
:20132000514B0DF01FFE02460B4647A1D1E900010DF064FC32463B460DF014FE02460B46BD
:2013400000204A490DF05AFC02460B46504659460DF008FE3EA3D3E900230DF003FE0246B0
:201360000B46DDE902010DF049FC06460F46DDE9000132463B460DF043FCDDE9002300206B
:2013800082468B460DF03AFC02460B46304639460DF034FCCDE90201DDE50026B44637E410
:2013A000334600202F490DF007FF0346FFF755BB29A3D3E90023DDE904010DF0D3FD26A3BE
:2013C000D3E900230DF0CEFD0346FFF746BBB8F1010F03467FF441AB01F10041FFF73DBBA4
:2013E00000297FF446ABC3F58263033347FA03F000FA03F3BB4217D08846FFF710BB1B4B90
:201400009C423FF709AEDDE90023924693462EE64FF480264FF0010CFFF7FABB5A4600F0E3
:2014200027F802460B46D3E600F00100C0F10208FFF7F5BAAFF30080000000604715F73FD6
:2014400044DF5DF80BAE543E555555555555D53FFE822B654715F73F9C7500883CE4377EA7
:20146000FEFFEF3F0000F03F0000D03F0000E03FF8B5C1F30A5604460D460B46174616BB07
:2014800021F00043034332D00022314B0DF06AFD304A044697420D460B4637DB40F2FE72B9
:2014A000C1F30A56363E3E44964215DD24A1D1E9000122462B460DF095FB21A3D3E90023CF
:2014C0000DF050FDF8BD40F2FF72964224D040F2FE723E449642E9DC002E09DD23F0FF4374
:2014E00023F4E00343EA065520462946F8BDF8BD16F1350F15DA4CF250339F42D6DC12A1EA
:20150000D1E9000122462B460DF06CFB0EA3D3E900230DF027FDF8BD02460B460DF070FB6C
:20152000F8BD23F0FF4323F4E003363643EA0655204629460022084B0DF014FDF8BD00BFE7
:201540009C7500883CE4377E59F3F8C21F6EA50100005043B03CFFFF0000903C044B1A68CA
:20156000B2F5806F03D01B689B0500D4FEE7704728ED00E0FEE700BFFEE700BF08B50AF07B
:20158000C5FE104A104B9A420DD2D0430F4918440B4620F003000430084453F8041B83423E
:2015A00042F8041BF9D10A480A494FF000028842B8BF40F8042BFADB00F040F8FFF7CEFFBA
:2015C00008BD00BF000000208F060020EC080100900600204A340020F0B5002706463C46CF
:2015E0003D4683B0304600F0CDF90195019B9C4206DD00BF019B01330193019B9C42F8DCA5
:20160000304600F0C9F90195019BC4F5C874A34206DA00BF019B01330193019BA342F8DB3F
:201620000137B7F5487F06D0B7F5C87FCCBFC7F548743C46D6E703B0F0BD00BF2DE9F0418E
:20164000614C84B02368614801215B689847236801210A461B685D4898470AF01BFB02F0AB
:2016600089F902F0F3F801F04FF802F02DF900F07FF957495748584A012303600B60184622
:201680001368FFF7A9FF0AF009FB01F0FFFB01F069FB03F013FF01F0D9FC03F01FFE41F2E5
:2016A000342004F023F801F083FE03F095FF4B4801F014FD4AF630520021494802F086FE4F
:2016C000484801F00BFD0021474803F0CBFE03F0D7FB03F051FC0220FFF77EFF434802F0FE
:2016E00075FE434B434C186801F0F8FC424802F06DFE424B186801F0F1FC414802F066FE44
:201700002168404802F062FEE469A04720B1A04701463D4802F05AFE0A2001F0D7FC002650
:201720000BF0E4F902A80821384C394F019601F00DFD9DF80F209DF80E8002AB03CB42EAD2
:201740000828FD6A2060616002204AF6CD31A84741460320A84719210120A84708227B6B6F
:2017600002A90B20984705210620A847BB6A01A9012098470199274802F028FE264B62684E
:2017800021685A6019600BF01DFB3146234803F069FE0220FFF720FF3146214803F062FED4
:2017A000204803F017FB01F05FFC0120FFF714FF03F0AEFD044601F06FFC14F0FF0FF7D128
:2017C00001F030FFF4E700BFD801001000400340080009400C4009402C200940F80401006B
:2017E0001C050100340501002005002048050100A80701005C080100500501002C0801005A
:2018000058050100600501006405010010340020C406010088050100F0290020BC050020C3
:2018200054040020200401002DE9F04104880646772C30D07E2C27D024B10023038003200A
:20184000BDE8F08103F042FD2F4F304B304D3A6818702C60002A45D02346A0462D4C04F811
:20186000038093688020002198472B68013357F823202B60002AF2D1DBB2274A137077235E
:2018800033800120BDE8F081204B1B788B4219D00120BDE8F081DFF880801D4D98F8002082
:2018A0001E4F002393423B602B6007DA194CE156002919DB013393422B60F7DB3B68002BCF
:2018C000EFD1DCE7124D134CDFF84C80134F2B683A68E05C511C00F07F0098F80020E05491
:2018E0003960E7E71346C8E70849074A097852F82320002003F082FD0028E8D17E23338002
:201900000120BDE8F08100BF6404002046340020A0060020D429002089290020A406002030
:2019200010B40F4B1C7864B10E4A1368984214D0002303E052F8041F88420CD00133A3421D
:20194000F8D1094A0948135D63F07F0313555DF8044B03F0A7BD1C46F3E70024F1E700BF7B
:201960008929002064040020D42900205404002008B500F01BF8024B00221A7008BD00BF3B
:201980008A290020034A137803431846137000F029B800BF8A290020034A137823EA00032A
:2019A0001846137000F01EB88A2900200A4B1A6802B1704710B50122084C1A6023680A2001
:2019C000DB6B984723680F20DB6B9847044B4FF404421A6010BD00BFA8060020B401001092
:2019E000A0200240094B0A494FF4044208701A60C20744BF4FF4806243F8102C830703D5F9
:201A0000044B4FF400421A60704700BFA02002408B29002090200240813801289ABF024BB2
:201A200018680020704700BFEC060020024B032202481A60FFF774BFEC060020AC0501005B
:201A400010B5044682B07721002001F00DF94CB98DF807400DF107010122F4200BF0F0FDA0
:201A600002B010BD25238DF80730F3E730B5802885B016D0812810D11D4C206878B151B3B9
:201A80000120FFF7DDFF1B4803211B4A002303F031FA0220206005B030BD154B186805B04D
:201AA00030BD134C012500207721256001F0DCF81249182288200BF0B5FD04A9B62301F849
:201AC000013D2A46E0200BF0BBFD0020FFF7B8FF206805B030BD0748019103F033FA019913
:201AE0000846FFF7ADFF01231846236005B030BDEC060020CC0600202D1A0000B40600202A
:201B0000F8B5534B1B68032B40F09A80431E012B00F296804F4C0023772105462360184668
:201B2000A38001F0A1F82146F72006220BF07AFD00287ED0E178484A23796079090341EAD3
:201B40000311168841EA1013C6EB131101FB01F1B2F9047076000913B2F90200C6EBD303DD
:201B600007FB01F100FB03F0891301EBE0204710A7F57A4E4FEAAE0606FB06F6B2F9081093
:201B8000B2F90A70731301FB0EF103FB07F3B2F90E70491007FB0EF701EBE303B2F806C0DC
:201BA0009B14B2F910E003F50043F61279000CFB03F30EFB061726786178B2F90CE094F862
:201BC00002C036034FEA0E4446EA0111DB13906104EBA70741EA1C1127D040F63544494238
:201BE000A1EB273104FB01F101F1434101F5A0010029B3BFB1FBF3F34900B1FBF3F35B00A0
:201C0000D90801FB01F1B2F91440B2F916609F08490B04FB07F401FB06F1B2F9126062135B
:201C200002EB2131314403EB2113012D0BD01846F8BD204606210BF01FFD4FF00040F8BDDA
:201C40004FF00040F8BD00EB800080300012F8BDEC060020AC060020B406002081380128CE
:201C60009ABF024B18680020704700BF14070020024B032202481A60FFF752BE14070020F6
:201C8000BC05010010B504464421002000F0ECFF002C064B14BF1024002402201C8019464E
:201CA000BDE8104002460BF0CBBC00BF7429002010B5802882B017D0812811D11D4C2068E7
:201CC00080B1002929D00120FFF7DCFF1A4824211A4A002303F00EF90220206002B010BD76
:201CE000144B186802B010BD154C012023689B6B9847236801209B694FF480419847236876
:201D00004FF08041DB69012098470020FFF7BAFF084B0120186002B010BD0748019103F071
:201D200011F901990846FFF7ADFF01231846236002B010BD14070020F4060020711C0000A9
:201D4000B401001038B5344B1B68032B07D1820705D003280FD0012805D0022807D04FF023
:201D60000043184638BD2D4B1B68184638BD2C4B1B68184638BD2B4D44210446002000F0FB
:201D800073FF2946042002220BF04CFC70BB264D254804210BF070FC00202C786B78A97878
:201DA000EA7843EA042442EA01220028D7D090080DF0A4FC4FF074510DF0F4FC1B490DF0C7
:201DC000F1FC0DF03FFE154B154D1860A0080DF095FC4FF074510DF0E5FC14490DF0E2FC52
:201DE0000DF030FE01232860184638BD2B885BBA2B805B040C4DCBD50120294602220BF03F
:201E000011FC0028C4D02046A91C02220BF00AFC0028C2D1BCE700BF14070020F00600203B
:201E20001C070020742900201807002000007A44014B1868704700BF4007002070B506468B
:201E40000E4C82B000204521256800F00DFF76B905F002054FF486532560ADF806300DF142
:201E60000601022201200BF0EBFB02B070BD41F2C2020123ADF806202360F0E740070020AF
:201E800000B5002083B0452100F0EEFE01200DF1060102220BF0C6FBBDF90630002B08DBF8
:201EA00008481021084A002303F024F803B05DF804FB0648FFF734FD054B02221A6003B000
:201EC0005DF804FB20070020811E0000DC05010040070020802810B50DD0812809D10C4660
:201EE00071B90D4803F02EF82046FFF7A7FF204610BD002010BD0020FFF7A0FF002010BD86
:201F00000120FFF79BFF04481021044A002302F0F1FF012010BD00BF20070020811E0000AD
:201F2000813801289ABF024B18680020704700BF6407002038B5114C114A237803211160A3
:201F4000ABB1104D0020432100F08EFE0421284600F094FD20700020014600F085FE2A8898
:201F60006B880948094952BA5BBA02800B80012323700748BDE83840FFF7D2BC8C29002021
:201F800064070020680700207629002078290020EC05010030B5802883B023D081281DD16B
:201FA000234C2068E0B100293AD0224D2B785BB14321002000F058FE002000F03DFD28709C
:201FC0000020014600F050FE1B4803211B4A002302F090FF0220206003B030BD144B1868AB
:201FE00003B030BD164B0024164A174D20461C60432114802C8000F037FE02A9102302204D
:2020000021F8023D02460BF01BFB0A4B21461870204600F029FE064B0120186003B030BDC4
:20202000054802F08FFF01231846236003B030BD640700208C29002044070020351F00000F
:2020400068070020782900207629002008B5174B1B78032B28D8DFE803F01E150C020CF09A
:202060001BFF00224FF07D530CF07CFF0DF03CFA08BD0CF011FF00220D4B0CF073FF0DF0B5
:2020800033FA08BD0CF008FF00220A4B0CF06AFF0DF02AFA08BD0CF0FFFE0022064B0CF021
:2020A00061FF0DF021FA08BD002008BD902900200000303F0000203F0000103F8138012826
:2020C0009ABF024B18680020704700BF94070020024B022202481A60FFF722BC94070020C5
:2020E0000406010010B50C4C0120682100F0BCFD3F23214601226C2023700BF0A1FA21465D
:202100004F236B20012223700BF09AFABDE810400020014600F0A8BD91290020802838B55D
:202120000BD0812806D111F03F012DD1294B1B68DB043BD4284B186838BD284C0720236812
:202140009B6B9847236807209B694FF40051984723684FF080410720DB69984723680C20E5
:20216000DB6B984723680C209B6A4FF480614FF4407298471A4A4FF480501A4B10601649DB
:2021800000221A60086838BD1648174B124D4FF48052016001241A6014480821144A002304
:2021A0002C6002F0A7FE2C60204638BD0D4B0F48196002F0C7FEFFF795FF0E4A136813F0D6
:2021C0000103FBD1044A06494FF4805013600860106838BD8020024094070020B4010010D5
:2021E000A0200240980700209020024074070020212200000428004010B5084C012068211F
:2022000000F032FD214601223A200BF00BFA0020014600F029FD207810BD00BF8D29002044
:202220002DE9F041354C236813F0380F15D1344D03F03F042E7856B94CBBFFF753FFBDE8BB
:20224000F04130480521304A002302F053BEE3B22B70002CF1D02D4F3DE02D4E3278002A0A
:20226000E5D02C4F0025012068213D7000F0FCFC394601221C200BF0E3F9074629462846EB
:2022800000F0F2FC2368002FD1D03570CFE71F4F0120682100F0E8FC0923394601226B2065
:2022A0003B700BF0CDF93F23394601226C203B700BF0C6F9174901221C202E700BF0C0F9AC
:2022C000394601223A200BF0ADF93046314600F0CBFCE3B22B70DB43012068213B7000F02A
:2022E000C3FC012209496C200BF0AAF90020014600F0BAFC084809F0D5FCA0E79807002013
:202300008F29002074070020D120000091290020902900208E2900208038010008B5034B0B
:202320001B685B689847C0F3804008BDB401001028B1012806BF054BD86800207047044BFE
:20234000186800F0010080F0010070479C070020C020024008B100207047034B186880F031
:202360001000C0F300107047C0200240813801284FF0000000D97047FFF7D0BF8138012899
:2023800001D9002070470420FFF7C8BF802870B514460AD0812807D1E9B9BDE87040194B0E
:2023A00010461B685B6B184770BD164B164A0125A5401B68156020461B680021134A9847E8
:2023C000134AE0B21368134923EA05051560BDE8704001F063BA0B4E0B4A01253368A540F4
:2023E000156020461B680021084A9847084A31681368204623EA050515600B6BBDE870400A
:20240000184700BFB4010010E020024000400720D02002403124000008B50022FFF7B6FF1F
:20242000012008BD08B50422FFF7B0FF012008BD38B510B1042814D038BD134C204603F0DD
:2024400067F80028F8D02046042103F04DF80F4B1B6813F001050CD100F0CCFCE560A060AA
:2024600038BD4FF480414FF08052BDE8384000F0FDBF00F0BFFCA368C31AE3600448BDE8C2
:202480003840FFF74DBA00BF9C070020C020024024060100024B186800F00800704700BFBD
:2024A000C02002408138012801D90020704708B5034B03201B685B689847C0F3804008BDDC
:2024C000B4010010802810B509D0812805D1134B03201B68E9B95B6B9847012010BD0F4CDE
:2024E000032023685B6B98470D4B0E4A1B6808211160DB694FF4A060984723680A4A1B68F4
:202500000320002198470320084901F0C7F9012010BD1B6B9847012010BD00BFB4010010AE
:20252000B8010010E0200240002003203125000008B5074802F0ECFF00B908BD0548FFF74D
:20254000EFF9BDE808400248402102F0CDBF00BFAC0700204C060100014B00221A707047E9
:202560009229002038B51D4C054623680020DB699847236800205B6A984723680020DB6AD2
:202580009847174B0121174A196013689B07FCD5154B15201B6817211B684FF4C042984719
:2025A00040F20A21114A124B1160124801221A7001F040F9104B002D1A6822F001021A60CB
:2025C0000BDD0E480E4A90FBF5F00E4C4108206011601A6842F001021A6038BDB801001072
:2025E0002820086028200840B40100100400014092290020880400200C000140006CDC0273
:202600003000014028000140154B70B5154800241C7001F015F9144A144D1368296823F071
:20262000010313600B6A204698472B6820469B6A98472B6820461B6B98470D4B01210D4A5D
:20264000196013689B07FCD50B4C152023689B6B9847236815201B6A0021BDE870401847FD
:2026600092290020880400200C000140B80100102820086028200840B401001010B5064CA1
:20268000042023685B699847236804205B6B98470128F9D110BD00BFB8010010FFF7EEBFA9
:2026A000032801D000F016B908B5FFF7ADFF104B00219B68812098470E4B00219B688120E3
:2026C00098470D4B00219B68812098470B4B00219B68812098470A4B81209B68002198472C
:2026E000084B4FF480521A60BDE8084000F0F2B8AC050100DC050100BC050100EC05010029
:2027000004060100A020024070B509F0C3FA0646FFF7B4FF3C4B4FF4A0601B68DB6998476C
:202720003A4B01213A4A196013689B07FCD5394C00F0A2F8FFF710FF0BF066F8364801F02B
:2027400079F8236819209B6B984723684FF4005119209B699847236818209B6B98472368F1
:202760004FF4005118209B699847236817209B6B984723684FF4005117209B69984723683F
:202780001B209B6B984723684FF400511B209B69984723681E209B6B984723684FF480419F
:2027A0001E209B69984723680D20DB6B98471B4A4FF400552368156000214FF480729B6AC3
:2027C0000D209847236802209B6B9847236829469B690220984723680B209B6B9847236836
:2027E00029469B690B20984723681D209B6B9847236829469B691D20984706B170BDBDE80C
:20280000704009F04BBA00BFB80100102820086028200840B40100109C040020A0200240BB
:2028200010B5094B09481B685B68984710F00C0F044605D0064B04221A60022009F032FA97
:20284000B4FA84F0400910BDAC010010002000400428004008B5064B02201B685B6B98475F
:20286000012803BF034B186800F00100002008BDB80100106020084070B5104D02202B6801
:202880005B6998472B6802205B6B9847012804460A4BF7D11B684FF44070DB699847084BBF
:2028A000084A1C6013689B07FCD5074B07481B6807491B680122BDE870401847B8010010C5
:2028C0002820086028200840AC01001000200040006CDC02214B10B5FF221A70FFF7BAFFC6
:2028E00020B11F491F4A00230B6013601E4B4FF440701B681B6A98471C4B01211C4A19608A
:2029000013689B07FCD51B4C082023689B6B984723684FF4005108209B69984723680920EC
:202920009B6B984723684FF4005109209B699847236805209B6B984723684FF4804105203E
:202940009B699847236806209B6B9847236806209B694FF48041BDE8104018478C0600203F
:202960000428004010040542B80100102820086028200840B40100102DE9F84305462A4BB1
:202980002A4A1B780E465B0013602949037804320B601368274C5F06FBD403232360022093
:2029A00009F080F92368D807FCD4FFF739FF012E034624D900B3013506F1FF390224DFF8B3
:2029C00070801C4F02E0B4421BD2013415F8012B631E9945C8F80020F5D901233B6002207B
:2029E00009F060F93B68D907FCD4FFF719FFB442034604D20028E8D10020BDE8F883002BC3
:202A0000FAD00C4C05232360022009F04BF923461A68D207FCD4FFF703FF064A13685B06D2
:202A2000FCD4BDE8F88300BF9329002000280040082800400428004010B50C4B0C4C1B78C0
:202A40000C495B000C4A2360086013680A4C5906FBD407232360022009F024F92368DB0734
:202A6000FCD4BDE81040FFF7DBBE00BF932900200028004008280040042800402DE9F84FC6
:202A80008146274B274A1B7888465B0043F00103254913600B68244A13F04004FAD1164669
:202AA0000B231360022009F0FDF8B346DFF87CA008F1FF370125A74216DDFDB13368D80720
:202AC000FCD4FFF7ADFE05460028F4D0DAF80020092309F8042001340220CBF80030E4B22B
:202AE00009F0E0F8A742E8DC45B10F4A13680E4DD907FBD4FFF794FE044618B90024204657
:202B0000BDE8F88F094BC8441A68052308F8012C02202B6009F0C6F82B685B06FCD4EEE755
:202B2000932900200028004004280040082800402DE9F04F0546484F83B098463B780192E7
:202B4000464A5B0013608A460378454904320B601368444C5906FBD403232360022009F0A0
:202B6000A1F82368DA07FCD4FFF75AFEBAF1010F034625D900B301350AF1FF390224DFF817
:202B8000E0B0384E02E054451CD2013415F8012B631E4B45CBF80020F5D2012333600220B4
:202BA00009F080F83368DB07FCD4FFF739FE5445034605D20028E8D1002003B0BDE8F08F99
:202BC000002BF9D0274A3B78154624485B0043F001030B2103600220116009F063F8AA461E
:202BE0001F4F08F1FF3601244FF0000BB34516D2002CE1D02B68D807FCD4FFF711FE04467C
:202C00000028F3D03A680199092301F80B200220CAF8003009F046F80BF1010BE6E7002CF1
:202C2000CAD0104A13680F4CD907FBD4FFF7F8FD0028C1D0019A0A4B424490461A68052381
:202C400008F8012C0220236009F02CF823685B06FCD40120B1E700BF93290020002800400D
:202C600008280040042800402E4B10B504461970FFF7F0FDB0B12C4B1A78A24218D02B48DB
:202C80002B4900221C7002600A601B788BB1012B2BD0BDE81040274B27481B6827491B6804
:202CA00001221847FFF7E8FD1F4B1A78A242E6D110BD234C052023684FF4C0419B6998470D
:202CC000236806209B694FF4C04198472368052106221948DB6C9847236808209B6B984724
:202CE000236809209B6B9847D3E7154C082023684FF4C0419B699847236809209B694FF44B
:202D0000C04198472368082109220B48DB6C9847236805209B6B9847236806209B6B984750
:202D2000B7E700BF932900208C0600200428004010040542AC01001000200040006CDC027A
:202D4000B401001010B5064C042023685B699847236804205B6B98470128F9D110BD00BF72
:202D6000B801001038B5194A00200021C2E90001174B04201B685B6B9847012801D0FFF7AF
:202D8000E1FF134B00201B68DB699847114B0121114A196013689B07FCD5104A10491368C1
:202DA000096823F4807323F001030E4C13600B6820460D49984740F221220C490C4B04255C
:202DC0003120256008601A6038BD00BF90060020B801001028200860282008400C0001407B
:202DE000C801001000000140002100043C0001400800014010B40949094C0B6822680868F6
:202E00008342FAD1DB01074903EB52620023C1E900235DF8044BD1E90001704708200940DD
:202E20000C2009409006002010B50B490B4C0B68226808688342FAD1DB01094903EB52622A
:202E40000023C1E9002302F077F900B910BDBDE8104002F043B900BF082009400C20094012
:202E60009006002010B508F015FF034B1C6808B908F014FF204610BD08200940704700BF13
:202E80000146012000F060B808F0F2BE2DE9F04108F000FF194F1A4A1A4E1B4901243B687C
:202EA000002535600C60146080461B682846232198473B6820461B6824219847134A144934
:202EC000136823F4E02343F4403313600D6008F0CFFE104B1049114A1B6800F500700860AF
:202EE000146034601B6914209847B8F1000F01D0BDE8F081BDE8F04108F0D0BE84010010A3
:202F0000A000244300002443800024430020094008200940B00100101C200940A002244333
:202F2000064A074B10681B68DB0706D5054B1B681A1A30EA220028BF184670471C20094073
:202F40001420094018200940431E012B00D97047C30709D50B4B820719600ED50A480B4BCB
:202F6000012201601A6003E0830705D5064B1960074B01221A6070477047044B01221A60F9
:202F8000704700BF182009401C20094080022443A0022443014B1868704700BFB4070020A6
:202FA00008B5FFF771FF124B1860FFF73DFF114B1B686BB9104B1B6803B908BD0F4B1049D2
:202FC0000020012208601A60BDE8084002F078BA0A4B4FF480721A6008F04AFE00F2052060
:202FE00020F4FF70074B20F001001860E2E700BFB4070020A00024438000244304200940B5
:20300000800224431C200940820702D5034B01221A60C30700D4704708F040BE000C084058
:2030200008B508F037FE074B1A68012A03BF0649022219600022002814BF104642F0010053
:2030400008BD00BF000C084051E5CC1A03490448044B012208601A60704700BF00000840D2
:20306000FFFF0F00000C084038B5FFF7D9FF064C064D0749074A012325600B601360BDE8C2
:203080003840FFF7C1BF00BF00000840FFFF0F000C0008400401004303490448044B012288
:2030A00008601A60704700BF00000840FFFF0F000C00084008B5FFF7B3FF034B00221A60C0
:2030C000BDE80840FFF7A0BF0401004310B50446C0B200F081F9204610BD00BF70B5064618
:2030E0000024451E04E015F8010F00F075F9013430460DF02FF98442F5D30A2000F06CF90D
:2031000000F07EF90128FBD0204670BD70B50446B0B10078C0B1A9B10025661804E014F81B
:20312000010F38B1B44205D000F056F9631C05F10105F4D100F064F90128FBD0284670BD70
:203140000546F7E70D46F5E70546F3E710B40B4B0B4C13F8012FFF2A0ED1A342F9D1094A3C
:2031600039B11144013801390B78914200F8013FF9D15DF8044B7047034AF1E7C7FF0100FE
:20318000CFFF0100F0120050C8FF010038B50C4D02202B685B6998472B6802205B6B98474E
:2031A00001280446064BF7D11B684FF40070DB699847044B044A1C6013689B07FCD538BD2E
:2031C000B801001028200860282008402DE9F04340F2F275DFF8E08083B0FFF7D7FFD8F8FE
:2031E00000302B4EDB682B48984733682A4C5B69152098472368DFF8C490284F23F4FE6303
:20320000D9F8002023F0020323603D60D36B1D2098472349D9F800204FF0FF334FF00050CE
:2032200008600093D2F840C01A481C211D22E047D8F800301748D3F804C01A494FF4E1321D
:203240006023E04740F2011240F2013E1649174B142008601968164841F0100119600368AC
:203260001449002B0CBF134673460B603D60036853B12368326843F0500323601369152093
:2032800003B0BDE8F043184703B0BDE8F08300BFB00100100010004038100040441000408D
:2032A00090200240006CDC02341000402C100040B807002030100040D0010010B4010010CD
:2032C00008B5064B02201B685B6B9847012803BF034B186800F00100002008BDB80100103E
:2032E0006C20084038B50446FFF7EAFF18B1264A13681907FCD4032C03D0244B1B6803B198
:2033000038BDFFF7DDFFF0B9214D4FF400702B681B6A9847032C2CD01E4B01211E4A19608E
:2033200013689B07FCD51D2000F0A0FA1C2000F09DFA4FF0FF3000F099FABDE838404FF0C8
:20334000FF3000F093BA154B15481B68DB689847144B15201B685B69984740F2F270124AF5
:203360001249136823F4FE6323F0020313600860CAE72B684FF400709B6A98472B684FF45B
:2033800000701B6B9847C7E718100040B8070020B80100102820086028200840D001001079
:2033A00000100040B0010010381000404410004010B508F06FFC0446054800F03BFA054BAC
:2033C00000221A6004B110BDBDE8104008F066BCB0040020B807002010B50446FFF770FF99
:2033E00008B9FFF7F3FE044B2146BDE810401B680248DB69184700BFD0010010001000401A
:2034000008B5FFF75DFF18B1024B1868C0F3C00008BD00BF1810004038B5FFF7B7FE40F2DE
:20342000F2710C4B0C4A1B68116013F0500F10D00A4C0B4D05E02B681B699847094B1B68E6
:2034400023B923680848DB06F5D538BDC0B29847F7E738BD40100040441000401810004065
:20346000D0010010B8070020001000402DE9F0410F461646054608F00DFC00221446DFF8A5
:2034800094C1DFF894E14C484C490123DFF88C81CCF80020CEF8003003600B60D8F80030B2
:2034A00020461B6801343F219847042CF6D1DFF86C810024D8F8003020469B6801343F21D2
:2034C0009847032CF6D13E4B1B68FFF7E5FD3D4802F098F8044630B1A368032003B1984740
:2034E0002468002CF8D16B1C0FD0374937480A680123AB4022EA0303046846F000520B60F4
:203500003A432846236800219847314D314A00242B6814609B690720984700F08DFA00F0A0
:203520004DFA2D482D4903682D4A23F0030303600B682C4823F4C0530B601368296823F060
:203540000F03136004608B6938209847264B274D1B682C60DB6801209847254B254A2C60B5
:203560001C60136813F02004FBD1DFF8B4E0224F22481849224B234A0126114DCEF8006035
:203580003C6004600C601C602B681F491368096823F0030313604B681C48032198470C4B5F
:2035A0001B4A124812491B6804600C6016602A689B6BBDE8F0411847A0002443C00024432D
:2035C0002C200940BC070020D0200240B4010010B80100100C400940001009400410094068
:2035E0000810094080012243A00100104010094020042243141009404001224344012243F4
:203600000800094024220840D801001000400340181009400000244380002443840100100B
:203620008801044370B508F035FB01F0DDFE002840F0A080FFF774FC0446FFF725FC201A28
:20364000202800F19B80654801F0DCFF0446002800F0AB800225636823B19847A84228BF9A
:203660002846C5B22468002CF5D101F06DFD044601F062FD002840F0A180012D7ED057485E
:2036800001F0C0FF0446002800F081800626A3680BB1284698472369246826EA0306002C7A
:2036A000F5D1FFF7F9FC730706F0060572D4002D75D100F0C1F94A484A4903684A4A23F044
:2036C000030303600B68494C23F4C0530B6013684748216843F00F030024136004608B691D
:2036E00039209847434B444E1B683460DB6801209847424A424B34601460186810F0200057
:20370000FBD108F081FE062D63D03E4C3E4D3F4E2B682368326823F00303236053683C48CB
:2037200003219847314B1B689B6B98472B6808F05FFF384A33680021116035485B680121A8
:2037400098472368344A012143F00303236011602B6808F07FFFFFF767FBFFF79DFC1F48DB
:2037600001F050FF044628B1E36803B198472468002CF9D1BDE8704008F090BA08F08EFA6F
:20378000264A136823F00403136030BF70BDFFF783FC0625204B00221A60002D89D0134B0A
:2037A00028461B689B69984783E701F0CDFC044601F0C2FC022500283FF461AFFFF71AFB7B
:2037C000241AFFF7E7FB00EB44210220FFF7BCFB53E7022008F008FB97E700BFBC0700203D
:2037E000001009400410094008100940B801001080012243A0010010401009402004224330
:2038000014100940242208402C200940D801001000400340800104430C40094010ED00E072
:20382000034A136823F00403136030BF704700BF10ED00E00146014801F0F0BEBC070020DF
:203840000146014801F02EBFBC07002010B5054801F0D4FEBDE81040034B02201B68202119
:203860001B681847BC07002084010010421C10D010B50446074B00211B684FF4C0421B68E3
:203880009847054901230A68A34022EA03030B6010BD7047B4010010D020024038B5044653
:2038A0000D4608F0F7F901230549064AA3400B6042F8245000B138BDBDE8384008F0EEB9AD
:2038C000E0200240C0070020064B002103F1800243F8041F9342FBD1034B10201B681B6953
:2038E000184700BFBC070020B0010010F8B5094B094F1D6800241D60012606FA04F32B42FC
:20390000E0B203D057F8243003B198470134202CF3D1F8BDE0200240C007002008B520B953
:20392000064B01201B685B689847044B40201B685B689847024B00221A6008BDA0010010BD
:203940000002224338B50A4C08F034FA236801209B689847236805461B6801209847236825
:2039600001209B6898471128F9D1284638BD00BFA001001010B582B0FFF7E4FF0446042030
:2039800008F006FA032810D00420032108F0D8F9042008F0FDF90328FAD10090002106480C
:2039A0004FF040521C2308F081F9204602B0BDE81040FFF7B3BF00BF00A00C4010B5FFF7AA
:2039C000C1FF0446042008F0E3F9022808D00420022108F0B5F9042008F0DAF90228FAD112
:2039E0002046BDE81040FFF799BF00BF10B5FFF7A9FF0446012008F0CBF9012803D00320B6
:203A0000012108F09DF92046BDE81040FFF786BF10B5FFF797FF0446012008F0B9F90128D1
:203A200002D0044B9B6B98472046BDE81040FFF775BF00BF4800001010B5FFF783FF002186
:203A40000446032008F07CF9012008F0A1F910B1034B9B6B98472046BDE81040FFF75EBF77
:203A60004800001008B50AF003F830B1044B5B88022B0CBF0120022008BD022008BD00BF83
:203A80005C08002070B582B009F0F2FF40B9144801A909F0F5FF01280AD0002002B070BD73
:203AA0000F4C6388022B08BF0120F0D102B070BDFFF7EAF96FF03F05094C2D1A03E0FFF71A
:203AC000E3F9C54209D56088054E0228F7D1A0F10200B0FA80F04009E8E77088F7E700BF9E
:203AE0005C08002030B589B002A8182140F602020AF0A2F9164B9DF81A201B689DF81B40CF
:203B00001979144D61F3050211468DF81A205A7902A862F387118DF81A109A7901A9012347
:203B200062F347048DF81B4007958DF8163009F0A7FF012802D0002009B030BD02A809F09B
:203B4000F1FFA0F10100B0FA80F0400909B030BDD8040020DC04002008B5FFF7C3FF012840
:203B600001D0002008BDFFF78DFFC0B208BD00BF38B50A4D00202C6803E024682B68A34238
:203B80000AD02379032BF8D1054801F08BFC24682B680120A342F4D138BD00BF50080020DD
:203BA0007406002008B50346B32994BF0A46B422024819460CF07CFA012008BDDE08002009
:203BC000F8B5144E35682B79032B01D00020F8BD2B7A032B04D92F7AFFB23C1F8C4205DDAC
:203BE0002B680020336028712872F8BD224605F1090107370CF05CFAE95D042049B289B2FF
:203C000009F0B6F83368002219681A7231601A712046F8BD5808002010B582B00AF006F98C
:203C2000044609F025FF08B902B010BD084801A909F026FF0128F7D1638803F44063002B24
:203C4000F2D1638803F44063002BF5D0ECE700BF010001040B2801D001207047082A01D0B5
:203C6000022070470029FBD0054B0139A3F1080013F8012D834201F8012FF9D10020704789
:203C80008C08002010B584B009F0F2FE08B904B010BD42F20343002402A801A9029403942D
:203CA000ADF8083009F0ECFE0028F0D09DF90A30803302D0204604B010BD9DF80C0000F08F
:203CC0000C00A0F10400B0FA80F04009DFE700BF10B582B009F0CCFE00B3124C6388022B78
:203CE0001CD1FFF7CFFF0028FBD101A90E4809F0C7FE02E06388022B03D109F0B9FE0028BB
:203D0000F8D142F202426388934207D042F20740181AB0FA80F0400902B010BD012002B069
:203D200010BD00BF5C0800200100010430B585B009F09EFEB8B10D4B5B88022B13D142F2D5
:203D40000345002402A801A902940394ADF8085009F096FE38B19DF80A305B06F2D09DF87C
:203D60000C0005B030BDFF2005B030BD5C08002038B50AF0B9F8012814D0FFF783FF0446E9
:203D80000028FAD1FFF7A4FF074D09F03DFFFFF753FE06480649074A074B6C8004710C71A9
:203DA00014711C71012038BD5C080020200A002094090020AC0A0020380B002008B50AF060
:203DC00093F8012809D009F053FE30B10A4B5B88022B02D1FFF756FF08B1002008BDFFF714
:203DE000A5FFFF28F9D000F00300A0F10100B0FA80F0400908BD00BF5C080020F8B5FFF79C
:203E0000F5FD0AF071F801280CD009F031FE28B909F0A2FF012807D00020F8BD194B5B8889
:203E2000022BF5D10120F8BD174A1849184B194C92F805C04F795E7994F805E060F3830CEE
:203E400060F3830E842560F3830760F3830682F805C0146084F805E02160D580CD804F7125
:203E60000B601A60DD805E71E58009F08DFFFFF7CFFDFFF737FE0128CED1BDE8F840FFF7BF
:203E800001BE00BF5C080020200A0020AC0A0020380B00209409002030B585B007285AD865
:203EA000DFE800F01F26313E41595F044D4C217709F0DEFD00282CD06388022B08BF00256D
:203EC00027D1FFF705FF012814BF03240024FFF7D9FD012818BF0324002D3ED1204605B05F
:203EE00030BD012973D000296BD0022005B030BDA1F10B030F2BF8D83A4CC9B2A37B8B42AA
:203F000069D0A173D4E7374C618609F0B1FD0028D2D1FFF773FF012851D0032005B030BD46
:203F2000304C2186C4E731F00302DED12D4CC1F34005237E607E61F30003DBB243F00203D1
:203F400065F3820303F0870362F3C71362F3C71023766076ACE70120C1E7FFF709FF20467D
:203F6000BDE701F115031A2BBFD81F4D0C2455F834301D4899424FEAC4022EDD14F1FF34E8
:203F8000F5D209F075FD0028A9D04FF0000205EBC40423796079A17903F03F0360F38713A4
:203FA00061F34702102403A802A98DF80E308DF80F20ADF80C4009F063FD00208FE7054638
:203FC0007FE70191FFF7D4FE0199084687E7FFF715FF0128A1D1002081E7044B02441A608F
:203FE000CFE700BF5C0800205C060100D804002079B130B50C4683B0102874D8DFE800F09A
:20400000101D22272C733C6D42737373736064680B000220704705230B60002003B030BD71
:2040200009F026FD30B13E4B5888A0F10200B0FA80F0400920600020F0E7394B00209B7BF3
:204040000B60EBE7364B00205B8E0B60E6E7344B00201B8E0B60E1E7314B002008601A7E4A
:2040600002F001020A60197E01F004010029E2D042F002022260D1E72A4B00201B681B686E
:204080000B60CBE709F0F4FC78BBFFF7B7FE01283BD140F20343002201A869460192ADF8DD
:2040A000043009F0EDFC012837D06FF07F05FFF75FFE15F1800F25600CBF03200020ADE7C8
:2040C0000B230B600020A9E71A230B600020A5E76FF014030B600020A0E7114B002093F9B3
:2040E0001C300B609AE7012098E70D4B5B88022BCBD140F20343002201A869460192ADF8BA
:20410000043009F0BDFC012804D06FF07F032360032083E79DF90250CBE79DF90250C6E79C
:204120005C080020D804002070B588B0064609F09FFC70B3294B5B88022B08BF002528D136
:20414000FEF7A2FE6FF01F04241A03E0FEF79CFEC44235D5FFF796FD0128F7D080BB18219B
:2041600002A842F6014209F067FE1D4B0120F6B28DF81760069309F03DFE02A801A909F075
:204180007FFC78B9012409F049FE15BB204608B070BDFFF733FE012816D0012008B070BDB7
:2041A000FFF73EFBBDF80A3003F44063002BF7D0BDF80A40A4B2B4F5105418BF0124E2E72E
:2041C00025B9022008B070BD0546B9E7FFF7D0FDF7E7FFF7CDFD2046E0E700BF5C0800203E
:2041E000DE08002010B50C46B32C014694BF2246B42204480BF05CFF2046BDE81040FFF7F8
:2042000093BF00BFDE0800200B2801D001207047082A01D0022070470029FBD008B5124BC1
:20422000083103F1080011F8012D03F8012F8342F9D109F01DFC48B10C4B5B88022B05D110
:20424000FFF746FDFFF71EFC032008BDFFF7D6FD012801D0032008BDFFF73AFDFFF712FC51
:20426000FFF786FDF6E700BF830800205C08002010B509F039FE012817D009F0F9FBB0B99F
:20428000FFF7BCFD012804460DD1FFF74FFDFF2805D000F0030010F1FF3418BF0124FFF7C7
:2042A00067FD204610BDFFF763FD012010BD094B5B88022BE4D1FFF7E5FC0028FBD1FFF749
:2042C00035FDFF28F1D000F0030010F1FF3018BF012010BD5C0800202DE9F84342F60109C5
:2042E0002A4F2B48FFF7A6FA09F002FD384600218C220BF0B7FF00218C2226480BF0B2FF5D
:2043000000218C222448254C0BF0ACFF00218C2223480BF0A7FF234E234B00252946204697
:2043200080221F60376075600BF09CFFDFF884E001234FF0390CFF207B21A6224FF0190894
:2043400007272661A4F8009084F80E8084F80FC0C4F814E02776A076E17622776373637625
:2043600084F83730FFF74AFD0128044603D02C462046BDE8F8830D4809F06EFD29460C4863
:2043800001F070F82046BDE8F88300BF200A0020C404002094090020AC0A00205C08002036
:2043A000380B00205008002058080020FC06010074060020400800200AB90020704708B546
:2043C00008461146FEF7A2FE002008BD0FB400B583B004AB53F8041B04481A46019300F0CA
:2043E0004BF803B05DF804EB04B070470805002038B50446154600680BF05AFE23680020F3
:204400001D44256038BD00BF0EB430B586B009AB53F8041B084D01901A4601AC04A80393D2
:204420000495059400F028F8019B00221A7006B0BDE8304003B07047F1430000102970B52B
:204440000C46054602D80AE0102C0BD92B686868084910229847103C0028F5D070BD084662
:204460000029FBD022462B6868680249BDE87040184700BF4C0701002DE9F04F82460F46F9
:204480008FB007924FF0000B3B78002B00F0E880252B08BF3E461BD03C4602E0252B04D0B6
:2044A00014466378621C002BF8D1974216460CD0D51B39462A46DAF80030DAF804009847AE
:2044C000002840F079826378AB44002B00F0C88073780136002B00F0C38019460025A1F1C6
:2044E0002003102B1BD8DFE803F0171A1A141A1A1A1A1A1A1A111A0E1A1A090045F01005DC
:2045000016F8011FEBE745F00105F9E745F00605F6E745F00805F3E745F00205F0E7A1F1A2
:204520003102082A0B46374600F2DC80A1F13002092A4FF000040AD804EB840403EB440431
:2045400017F8013F303CA3F13002092AF4D92E2B00F0D1804FF0FF366C2B00F03D81682BF4
:2045600000F04281782B00F28180DFE813F079007F007F007F007F007F007F007F007F00B7
:204580007F007F007F007F007F007F007F007F007F007F007F007F007F007F007F007F002B
:2045A0007F007F007F007F007F007F007F007F007F007F007F007F00BE027F007F007F00CA
:2045C0007F007F007F007F007F007F007F007F007F007F007F007F007F007F007F007F00EB
:2045E0007F007F007F007F007F007F007F007F00BB027F007F007F00B802B502B2027F00E5
:204600007F007F007F007F007F007F007F007F007F007F007F007F007F007F007F00AF0278
:204620007F007F007F007F007F007F007F007F00AC027F00A902A602A302A0029D027F009D
:20464000A6027F007F007F007F009A0297027D007F007F0091027F008E027F007F009402D0
:2046600058460FB0BDE8F08F45F4407505F4E063B3F5806F07F1010700F0CE804FD9B3F5EA
:20468000C06F00F0A581B3F5E06F00F09A81B3F5A06F7FF4F9AE079B012C1A6803F10403B6
:2046A00007938CBF04F1FF340024EB078DF8202000F1D08150462146FFF7C0FE002840F0C7
:2046C0007B81DAF80030DAF8040008A901229847002840F071810BF1010C0CEB040505EB10
:2046E000040BD1E62A2900F08C800B462E2B4FF000047FF42FAF7B78791CA3F13002092AE6
:204700007AD80F46002606EB860603EB460617F8013F303EA3F13002092AF4D91CE7B3F5E7
:20472000807F00F0B080B3F5407F7FF4ADAE079BC34A1968C34815F4804F03F1040308BF50
:204740009046079318BF80460A460023002900F094810DF133094846110941EA03714FEAF1
:20476000131E02F00F0673460A4618F8061000F8011D52EA0301EFD1B9EB0006034600F0D9
:204780007E810336B4424FF030024FF078014FF0230300F8022C8CBFA41B0024EA0700F820
:2047A000011C00F8033CA0F1030800F1A18150462146FFF743FE002840F0FE804146DAF893
:2047C0000030DAF8040032469847002840F0F4805E4406EB040B57E67B786C2B00F00481D2
:2047E000013745F06005BDE67B78682B00F09381013745F04005B5E62A2B00F091810F46C1
:20480000A8E6079B771C1C680433002C0793B8BF45F0010573789AE6079BD3F80090043303
:204820000793B9F1000F00F08F8299F80030002B00F0B2824B4613F8012F002AFBD1C9EB9E
:204840000308002E02DBB04528BFB04644458CBFC8EB04040024E90700F1E080504621467F
:20486000FFF7ECFD002840F0A7804946DAF80030DAF8040042469847002840F09D80D8447B
:2048800008EB040B00E6002EABBF25F0100501230196019315F40053049305F0E00300F064
:2048A000A880402B00F07F8200F24181002B00F02D82202B40F05A82079B1A1D079293F9A1
:2048C0000020D317002A73F10001C0F22A82CDE902230023059305F4C053B3F5805F00F0C8
:2048E0009281B3F5C05F00F0BF81B3F5006F00F067810DF136064FF00008019B41F2080265
:20490000984541F6080303EA050380F0338101999342C8EB0101019100F0468141F60802B1
:2049200001999342414400F031814FF000094A46049B73B1059B002B40F0838105F0060349
:20494000022B00F01B824048062B04BF02464FF0010909EB01039C428CBFE41A002415F048
:204960000103049306D1E80640F1F681019B2344049C0193B9F1000F07D01146DAF800300F
:20498000DAF804004A469847B0B9019B08EB0B05102B40F291819B4603E0BBF1100F40F28A
:2049A0008E81DAF80030DAF80400284910229847ABF1100B0028F0D04FF0FF300FB0BDE81D
:2049C000F08F079B1A680433C2F800B007935BE5DAF80030DAF804001D4901229847002851
:2049E000EAD10BF1010B4FE5BB7845F080050237B8E5402B00F0C68100F2A980002B00F025
:204A00009881202B40F02181079B049A05921A1D07921A780023CDE902235CE74946DAF885
:204A20000030DAF80400424698470028C4D150462146D844FFF702FD00283FF421AFBBE771
:204A400018070100040701003C0701005C07010048070100DAF80030DAF8040008A9012286
:204A600098470028A8D1504621460BF10105FFF7E5FC00283FF433AE9EE70DF13303302299
:204A800003F8012C581E04267CE645F41065EDE545F48065EAE545F4C855E7E545F4885547
:204AA000E4E545F4E065E1E545F48135DEE545F40075DBE545F40245D8E545F42455D5E520
:204AC00045F4A065D2E545F4C135CFE545F4B245CCE545F4A135C9E545F48445C6E545F47A
:204AE0004245C3E545F4E135C0E545F4C065BDE54146DAF80030DAF80400324698470028B5
:204B00007FF45AAF504621465E44FFF797FC00283FF45FAE50E7BB7845F02005023721E586
:204B2000079ABB78111D07911668023714E5602B00F0EC80802B40F01981079B073323F0E0
:204B4000070303F108020792D3E90023BAE6602B00F0EF80802B78D1049B0593079B073344
:204B600023F0070303F108020792D3E90023CDE90223B0E6934200F0EC800022019241F614
:204B800008020199934241447FF4CFAEDDE9022313433FF4CAAE874B15F4804F864A4FF082
:204BA000020908BF1A46C3E60B46002908BF01230193019B4FF000094A4603EB0801B7E619
:204BC000DDE9028942464B46134300F0E7800DF136031E460693404649460A2200230AF02C
:204BE00057FF30324046494606F8012D00230A220AF04EFF8046894658EA0903EBD1069BE6
:204C0000C6EB030879E6DDE90223134300F0C6800DF1360306939E46DDE90223D00840EA61
:204C20004370DE0802F007013346024630310EF8011D52EA0301F1D1069B7646CEEB030878
:204C40005BE64FF001095D4A83E605F4C053002200200021B3F5805F0592CDE90201D2D0D2
:204C6000B3F5C05F40F08580DDE90201544A554B15F4804F14BF9046984602460B461343E3
:204C800000F08C800DF1360306931E4602460B46110941EA03714FEA131E02F00F0073466E
:204CA0000A4618F8001006F8011D52EA0301EFD1069BC6EB030820E6019B9B464BB15A46EC
:204CC000DAF80030DAF804003F49984700287FF473AE31464246DAF80030DAF804004D4471
:204CE000984700287FF468AE019B2B441E46049B002B3FF46EAD50462146FFF79FFB0028E8
:204D00007FF45AAE06EB040BFFF7BEBB079B1A6804330793002A4FEAE27373F10001BFF6E2
:204D2000D6AD524263EB4303CDE9022301230593D1E5049A079B05921A6800211046043374
:204D40000793CDE90201C6E5DFF884904FF0060877E5012301932CE7504621460292FFF76F
:204D60006DFB029A00283FF405AE25E600220023ADE5DDF814800DF13606BEE5134A4FF05D
:204D80000109E6E5079B049A05921A1D07921A880023CDE902239EE5984652E54FF0000818
:204DA0000DF13606A9E5079B1A1D0792B3F90020D31787E5300701002C07010034070100EF
:204DC00004070100180701005C070100380701004007010010B50446006830B1002100F052
:204DE00041FB54F8040F0028F8D110BDF0B5038883B005465BB14A2B04D188291BD0012099
:204E000003B0F0BD00230380032003B0F0BD194800F0F8FB044630B1201DA16800F064F907
:204E20002468002CF8D1144B01221A704A2301202B8003B0F0BD0F48019200F0E3FB04464A
:204E40000028F3D0019A031D9A4205D02468231D002CEBD09A42F9D10648214600F022FCDF
:204E6000064E6269A369376832600BB1E06998473760DBE7C40B002094290020D40B0020CE
:204E800010B5064B002406481C7000F0B7FB2146BDE81040034800F0E5BA00BF942900208A
:204EA000C40B00201005002070B504460D48049D0078A261E361656130B9A1600A48214641
:204EC000BDE8704000F0AABB084D094B2E68201D2B6000F009F92E602146BDE8704002489B
:204EE00000F09CBB94290020C40B0020D40B00201005002010B5044C82B024680094FFF70E
:204F0000D3FF02B010BD00BFD40B002070B5094B04461B783BB1084D084B2E6804302B6043
:204F200000F0ECF82E602146BDE87040044800F075BB00BF94290020D40B00201005002017
:204F4000C40B002010B50A4B04461B783BB9C36003612146BDE81040064800F0A3BB0430C4
:204F600000F0FCF82146BDE81040024800F09ABB94290020C40B0020704700BF10B50E4C01
:204F80002368B3B1FDF736FF22685168136892681944091A4AB192E8180023441B1A92689E
:204FA000994228BF1946002AF5D1044B0844186010BD024A136010BDC80B0020CC0B00208A
:204FC0002DE9F041038805467BB1592B08D1872912D0822920D059232B800120BDE8F081A0
:204FE000002303800320BDE8F081254A0120136059232B80BDE8F081214F3B68002BEAD09A
:20500000D9688A4203D024E0D9688A4220D19B68002BF9D13B60DEE7194F4FF000083C6803
:20502000002CD8D0002604E0A3682646002BD2D01C46204600F06CFA0028F5D0E068882152
:20504000224600F0DBF978B10E4800F02BFAEBE73B6099680029BED0C86882420BBF8968BC
:205060000B4699608968F5E7E060A3682EB1B360C4F80880FFF782FFD1E73B60F8E700BF30
:20508000C80B00202005002010B50446104800F009FA1049E3680A684BB142B194420FD0C4
:2050A000134601E09C420BD09B68002BFAD10A4BA2601B680C60E360BDE81040FFF75EBF73
:2050C000054B1B68E360BDE81040FFF757BF00BF20050020C80B0020D40B0020014800F08A
:2050E000E1B900BF2005002010B5044600F0FCF92046BDE81040FFF7C7BF00BF10B5044679
:2051000000F0FAF92046BDE81040FFF7BDBF00BF10B5044600F0F6F92046BDE81040FFF7E1
:20512000B3BF00BFC068B0FA80F04009704700BF05C81044704700BF024B1868003018BFD2
:2051400001207047C80B0020024B186808B1024B18687047C80B0020CC0B002010B5114B6F
:2051600004461A68904218D05AB19368834208BF13460AD02BB19A68A24206D01346002BC8
:20518000F9D10023A360E36010BDA2689A60FFF7F5FE0023A360E36010BD82681A60FFF792
:2051A000EDFEEEE7C80B00202DE9F843DFF8A480274DD8F800702E68874247D077B33B461B
:2051C00001E0002B3BD01B689842FAD133B3837B8946044623B3002383736FB1BC424FF047
:2051E000870106D0BB7BDB0703D53846224600F033F83F68002FF1D1A3683BB14C4505D06B
:205200002C6004F10C00832100229847D8F80000844208D12368C8F800302E60BDE8F883C4
:2052200038468442F6D00028F7D00368A34208D0002BF2D01A68A24204D01346F8E7BDE849
:20524000F883034622681A602E60E7E73B46BDE7D40B0020D80B002070B586687EB1044677
:205260000A4802230460A37304F10C000D46B0470238012804D9832D02D00123A37370BDC9
:2052800020462146BDE87040FFF78EBFD40B002070B50C4A0C4B146800251D7084B101264E
:2052A00001E0246864B1E37B002BFAD0A673E573204682210022FFF7CFFF2468002CF2D13E
:2052C00070BD00BFD80B002099290020024B1878421C1A70704700BF9A29002070B407486C
:2052E0000749084A0023084D084C8A2603700B6013602E70237070BC704700BF972900208C
:20530000D80B0020D40B00209A290020952900202DE9F8432B4D2B780BB1FFF7B9FF2A4E7C
:2053200033781BB3DFF8B4E028499EF80040013B04EB4402920088180134895CDFF8A0C04E
:205340004268DFF8A0808068214FDBB204F01F0433708EF80040CCF80000C8F800203970FA
:2053600088B1812906D0847BE40705D428781844BDE8F88301238373FFF76EFF33782878CD
:205380001844BDE8F883134A134C12682260002AECD0A1460AE020683978837BD8F80020FB
:2053A000DB0709D403682360002BE7D02B78002BF1D0FFF76DFFEEE7FFF74EFFD9F8000084
:2053C000F0E700BF9929002097290020DC0B002096290020D80B0020D00B002095290020B3
:2053E000600D00205C0D0020024A034B10781B78184470479729002099290020F0B50F4E0B
:205400003478202C17D00E4BDFF838E01B78DFF838C0234403F01F0303EB4305AD000EEBAB
:2054200005070134B86034707A608CF800300EF805100020F0BD0120F0BD00BF972900208C
:2054400095290020DC0B00209829002038B5837B034CDB07256801D5FFF7FEFE256038BD9B
:20546000D40B002070B404460D4D2868A04206D038B1034600E023B11B689C42FBD170BCDE
:205480007047002CFBD0012600232060A673A3810A4620462C60812170BCFFF7D7BF00BFFC
:2054A000D80B002038B1837B013B012B03D8024A01231370C373704799290020FDF7DEBC6F
:2054C00010B5084C206858B100224368816822609847236823B1BDE810401868FDF7D0BCB7
:2054E00010BD00BF640D002010B541600446FDF781FC206010BD00BF90E80C001344036024
:20550000704700BF10B50446FDF774FC206010BD10B50446FDF76EFC23686268C3F10103DB
:20552000184482422CBF0020012010BDF8B504880546672C0CD0792C1BD01CB1002303805C
:205540000320F8BDFFF7C2FE1E4A1F4B10701C601D4C264604E00A2813D023687E2B2BDDE5
:205560001A4800F0D3F8431CF5D167232B800120F8BD852901D00120F8BD134C0023236084
:20558000E6E7114C124F23680E49002603F1010E3A4609783046FE54C4F800E0FFF72EFFED
:2055A0000C4B324618688521FFF728FF0028E5D179232B800120F8BD05495A1CC85432606C
:2055C000CEE700BF47340020700E0020E80D0020F00D0020D40B002008B5054805498022F3
:2055E00000F08CF8BDE8084003480021FFF73ABFE80D0020680D002030050020002303606A
:20560000704700BF00687047006808B904E018460368002BFBD17047704700BF026842B19E
:20562000914203D11BE099420ED01A461368002BF9D100230B6002680AB90EE01A461368BB
:20564000002BFBD1116070470B68136000230B6000230B600268002AF1D1016070470B6848
:205660000360F3E710B404684CB1A14217D0224602E0994208D01A461368002BF9D10C60BD
:2056800001605DF8044B70470C460B6813600023236004680C6001605DF8044B70470B6869
:2056A0000360F4E7026842B18A4203D10BE0994204D01A461368002BF9D17047196811609C
:2056C00000221A607047134612680260F8E700BF03682BB100201B680130002BFBD17047DB
:2056E0001846704700B10068704700BF0AF008BE08B50AF00FFE80B208BD00BF0023013A6E
:205700000160027143718371704700BF0346807959791A79091A114208D010B4411C1C68FD
:205720000A40205C9A715DF8044B70474FF0FF30704700BF08B5064803F0D4FE054BAA226D
:2057400001200021187059709A70DA7008BD00BFC5610000F00F002010B5114C0220A1793B
:2057600007F006FBA379112B0FD0062B0DD03A2B05BF94F8281094F82930002143EA0121AA
:205780000120BDE8104007F0F3BA238D618D01209942A8BF1946BDE8104007F0E9BA00BFA1
:2057A000F829002070B413780D7A83F002039D42044614D00B891BB94B89B3F57F4F2FD03C
:2057C0001E4A51F8085F13684E68012003F10801A0405E601D601160C0B270BC7047487ABF
:2057E00053789842E6D1887A93789842E2D1C87AD3789842DED1087B13799842DAD1487B46
:2058000053799842D6D1887B93799842D2D1D379CA7B9A42CED1032303FA04F0C0B2DCE757
:205820008B89FE2BCCD1054DC9892A68022322F8021B03FA04F02A60C0B2CEE77C0E0020B0
:2058400010B5084C2378012B01D0002010BD01460822A01C0AF0FAFB00280CBF2046002015
:2058600010BD00BFF00F002008B50146102007F08DFA044B04489B6800219847BDE8084040
:20588000FDF70ABC840801008D58000010B50C461146204602F0C6FD044B1B6813B19B68BA
:2058A00020469847024B1C6010BD00BF54150020001000202DE9F041154D07462A4600230C
:2058C0009078713230B101330C2BF9D14FF0FF30BDE8F081C3EBC30403EB04142E197170E0
:2058E00007F09CF9DFF830800A4A98F800301168C01A2F55B070CC1807F090F998F8002076
:205900002146821AF01C0AF0D3FBB078BDE8F08104100020FC0F00209C2900202DE9F04FD9
:20592000074683B092BB604E894636F8063C15469346FF244FF0FF38DFF878A1002B37D1BD
:20594000B8F1FF3F4DD0012D06F1B8062BD1B8F1FF3F23D0B82000FB08F5DFF850810F20E3
:2059600008EB0506A6F81290378207F01BFA0146304606F0ABFE05F1180040444021FFF7DF
:20598000B3FD234658B203B0BDE8F08F474D00262C46238ABB422CD0B83436B3FF2358B23A
:2059A00003B0BDE8F08F36F8063C0125002BC7D03046FFF7ADFD68B13D4B26F806BCE9B286
:2059C0009A7822B11A788A4208BF83F802B071335345F5D1B8F1FF3FB5D136F8063C002B86
:2059E000B1D1ECB24FFA84F8ADE7238A0126BB42D2D1638A002BCFD00F20019207F0D2F97F
:205A00000146204606F068FE019A0028C4D0F4B211462046FFF74EFF0028019A0CDB0028AE
:205A2000BCDDB82303FB06562346B28A1044B08258B203B0BDE8F08F4FF0000BDA461A4FB9
:205A4000DFF870904FF0B80837F8063CEBB156451BD038460192FFF75BFD019AA8B1002169
:205A60008E468C465FFA8AF008FB00535982104B997831B11978814204BF83F802C00EF1DB
:205A8000010E71334B45F3D1F344B837BAF1000F07D0BBF1000F81D011462046FFF70AFF80
:205AA000BDE74FF0010ACFE7980E0020800E002004100020501500202DE9F04715090F2D6E
:205AC00007469A4602F00F043FD00F2C34D0A146A84666195DBB0F2E03DD5CB9E5B9BDE865
:205AE000F08707EB0800C6F1100200210AF0BAFB002CF3D0DFF87480C9F11000D8F80060E8
:205B00003844314622460AF0D3FA022C26D03444C8F80040BDE8F08738465146BDE8F047BA
:205B200002F066BB454620264FF010094C462A4638460AF0BDFACEE7A84605F11006002D1C
:205B4000F2D14FF010094C46D4E70F2C4FF01008E8D042464546A146A618E9E70A2DD6D826
:205B6000FF22FE23FA723B73D1E700BF7C0E00202DE9F04FDFF8EC82B04D89B0002788F831
:205B800000702F7007F036F8AD4E3060042007F0F7F83368DFF8D0E21C785A7804F0F801C5
:205BA00000B2C029CEF8000042EA042274D0E02963D1297893F8049093F802E0D878C2F37F
:205BC0000A044B1D4A46214640EA0E202B70FFF7A5FEB0F1FF3F83465BD09A4AB82303FB3C
:205BE0000023B3F814A00123A245009734BF4FF0000A4FF0010A019307F010F82B788F4DE9
:205C0000834246D807F00AF82B7898F80080C51A08EBC9098C4AA944B9F57A7F156038D862
:205C200037B1316807EB080019442A460AF040FA002C78D0009B53B182494FFA8BF3B8206B
:205C400000FB031305EB080292B29A821A84BAF1000F40F00D81019BDBB97C4B45441D80A6
:205C60007B4C236823B1FFF777FD23685B68984703F052FC09B0BDE8F08FBB4600973C462F
:205C8000744F2A78995C01F0E000602854D041291DD009B0BDE8F08F297893F802E0D8789B
:205CA000C2F30A040B1D3A46214640EA0E202B70FFF734FEB0F1FF3F8346EAD0614FB8230A
:205CC00003FB00770122336822370092D9E73946501CC0B2034403F12000D3F800A0D3F8F8
:205CE0000490D3F808C0D3F80CE010338342C1F800A0C1F80490C1F808C0C1F80CE001F100
:205D00001001EAD118685B6808604B6098F800302932283388F80030009B4FF0000A2A70BD
:205D2000D146019368E7019B002B96D0BAF1000FAFD0464B1C8093E7981890F8019002325F
:205D4000DFF828A14FFA89FC1344BCF1000FCAF80030BCBF0133CAF80030CA064AD501F04F
:205D6000080303F0FF0E002B40F0AF81DAF800301A461B78C3F3830343F060033B7012F811
:205D8000010BA7F802E0830803F0300343EA8013CAF800207B7001F0040303F0FF020192B9
:205DA00033B9DAF8003013F8012BBA71CAF8003011F0030100F09680274B5B5CFB7119F0F8
:205DC000400FC9F3011300F06181BCF1000FC0F298810022002B00F08D80204908780128EF
:205DE00000F0B5811E4A00239A4699461360009B019301E70B0700F16E81DAF800301A4655
:205E000033F8010F9B78A7F80100FB70787812F804EB00F00F00019202464FEA9E0303F099
:205E2000300040EA8E10104303F00F03019A43F06003CAF800203B707870ACE79C290020F4
:205E4000FC0F0020800E002050150020E429002054150020F82900209C070100F00F00202A
:205E6000740E00209B290020780E00207C0E00204FFA8BF7B82101FB07F1DFF834A3C248FC
:205E80000AEB010319461A8C9C822231BF4E0AF00FF9BD4B06F24C5916F8012C22B116F8C3
:205EA000031C8F4200F03B8171364E45F4D100221046B823FFB203FB07AAB54B5FFA8BFCB4
:205EC000AAF8122003F24C519A781AB11A78624508BF987071338B42F6D1019B002B3FF445
:205EE000BCAE26E7DAF8003013F8012BFA71CAF8003064E707F1080204920593A54A0F20FC
:205F0000D25CCDF80CC0029206F04CFF05990346029A0498FFF7D0FDDDF80CC009F0080366
:205F200003F0FF0209F0030E002B36D019F0040F11D1994A0EF1FF331288012BADF81C2079
:205F400040F21881954B07F1180013F80E2007A90023FFF7B1FD98F8002002F1280388F888
:205F60000030019B002B3BD1DAF800303268DFF844929B1A2B70002C00F09A80A4F128038F
:205F80001A127B713A71BB79112B00F0C080009B4FF0000AD14601932EE619F0040F00F0EF
:205FA000C880BCF1000FC0F2DE807D490B78012B7FF418AF4B7893427FF414AF794A754BCD
:205FC000102013F80E901160029106F0EBFE029903464A46023107F11800FFF76DFDBAE74D
:205FE000DAF80030197801F0F801F029BED11121B971187800F0F301F03900F00400C0B21D
:206000000329C4D8DFE801F0382F2002597802330909A1F5756189B2090241F0F0013985CD
:2060200013F8011C01F00F01A1F5756189B2090241F0F0017985CAF80030002800F0BC801F
:20604000303288F8002091E759780433A1F5805189B2090241F0F001398533F8021CCAF826
:2060600000307985E9E7B3F801100433398513F8011CA1F58051D9E7B3F801100533398570
:2060800033F8021CCAF800307985D6E7464A0F20D25CCDF80CC0029206F084FE029A03469B
:2060A000424907F10800FFF707FDDDF80CC035E706F0B4FD99F8002098F80030801A0344A5
:2060C000283B1A127B713A715DE7002360223A707B707B805FE6DAF80020602310463B7066
:2060E00010F8013B03324FEA930E0EF0300E03F00F034EEA03037B700388CAF800207B807B
:2061000049E62A7831680A449278120962E6BB884FF0000ABB85009BD14601936CE516F8E9
:20612000020C314603EBC000009309F0C1FF009BBAE61D4B102013F80E9006F033FE4A46AD
:2061400003461A4907F11800FFF7B6FC03E7487890427FF447AE134A881C116007F1080283
:2061600005900492CAE632682B7813449A7802F00F021AE7DAF8003013F8012B8DF81D209F
:20618000CAF80030DEE600BFF82900200710002004100020B807010098070100B4070100C2
:2061A000F00F0020740E0020A0070100A4070100800E00209C29002033F8021BF985CAF8AF
:2061C00000303DE72DE9F04FB34EDFF8FCA2002387B033708AF80030054606F055FD06F068
:2061E00009FDAE4C04212060092006F0C1FDAC4B1B680BB1FFF7B0FA04A80190002D00F0ED
:20620000A682294606F062FAA64B1B883E2B36D99AF80070D4F8008000230237A24D08F8F0
:206220000730A24808F102032B60FFF709FB002800F00F8108F103032B604FF08009DFF8E9
:2062400074B29BF801209BF80010130943EA0113DBB2980840EA8313DBB210075FFA83FEF9
:206260005FD1BBF8020000285BD1080740F0F98012F0F00F40F0F5807823029361E0DFF83F
:2062800034B29AF800C0DE4623680CF10105EDB241221D441A700BF1200877460FCF4745DC
:2062A00028606960AA60EB600EF1100E05F11005F3D1BEE803002860696033780CF1290C75
:2062C00028338AF800C033700199102006F05EFD774B744D1B689847724B0028B3F800905E
:2062E00036789AF80080ACBFC0F17D076827C6EB0902C8EB0703B8BF15209A4240F3B88043
:20630000C0F178031E46029306F06AFD99FBF6F909F101098145C0F2D980002007B0BDE827
:20632000F08F090703D112F0F00F00F084802A68DBF800001346106003F804EB2B606023DF
:2063400002939BF80630112B00F005822A6802F8013B9BF807302A60402B00F00582FF2B04
:2063600000F02282012B61D02A6802F8013B2A60BBF808304F4A3BB953892BB993891BB9B2
:20638000D389002B00F044824B48FFF759FA4B4B1860002800F07781427818F807300420A1
:2063A00043EA021308F807304349454AFFF7FAF960F03F005FFA80F99BF818303D49FF2B74
:2063C00000F08F8101F118000391FFF739FA3B4A03991060002800F0CC8118F8072043780E
:2063E0001831134308F807300020019AFFF7DAF949F004095FFA89F949EA00002F685FFAFF
:2064000080FE9BF806302822112B3270294900F0108123689AF800209DF80800FF1A991876
:2064200098548AF8007081F801E04DE7029B43F0010302939CE7296823F03F031343214A5D
:206440000B701288CB1C2B606823A1F80120029377E71948FFF7F4F900287FF4EBAE81463E
:20646000EDE62B68702203F801EB02922B6068E720680BEB0601404409F01AFE2888404481
:20648000801B80B206F0B0FB0198FFF7EDF9012007B0BDE8F08F00BF9B290020FC0F00204F
:2064A00054150020E42900207C0E0020102A002048080100F8290020002A0020740E0020A4
:2064C000F0290020FA2900209C290020C24BD4F8008093F80090C14E41464A46002308F1A5
:2064E0000400336009F05AFE2B88DFF818E36FEA83436FEA9343BA4AC3F3072309F10409F6
:206500005FFA89F988F80030BEF8003028881178C9EB070703F1010C27F007071A0A88F845
:206520000330B04EAC4B88F8010088F8022059443A4608EB090083F80090AEF800C03760EF
:2065400009F0B6FD07EB090080B206F04DFB06F04DFCA54F804600283FF4DFAE0198FFF7B4
:2065600083F9404606F082FC404606F069FC9B4B1B68012B3FF4D1AE043B012B7FF6CDAE22
:206580002B883A686FEAC3436FEAD3439449C3F3072391F8008013703368029943442D881D
:2065A0001FFA83F88C4B21F007000521557030601970374632E0D6F8009020684A45034607
:2065C000B8BF91469AF80050B8BF3A6083F804E04A46284409F06CFD09EB050080B206F09C
:2065E00003FB06F003FC054600283FF496AE0198FFF73AF9284606F039FC284606F020FCE3
:20660000764A336812689844012AA2F104031FFA88F83FF482AE012B7FF67FAE734B0BEB86
:2066200008011B884FEAD80E9845C8EB0302C2D32DE74FF2B0020B8D5BBA9BB223F00F0042
:2066400080B290424A8D52BA92B200F0B28002F47F42B2F5704F00F0308103F47F43B3F5CE
:20666000704F00F0FA80624BF0223A7018687B1DC7F801001F465F4B30221B88327027F8EB
:20668000023B2F60C5E648F2FE03BBF808205A499A420FD14B8B6BB98B8B5BB9CB8B4BB990
:2066A00008310420554AFFF77DF840EA09005FFA80F981E6D5F800C0DFF84CE10CF1100366
:2066C0002B60BEE80F00CCF80410CCF80000CCF80820CCF80C309BF818304749FF2B7FF4EA
:2066E00071AE91F819C049F0080EBCF1020F5FFA8EFE4B8B00F0BC80002B43D18B8B002BA5
:2067000040D1BBF81E303C48002B3BD1038C33B9438C23B990F82430002B00F0DA80BBF882
:206720002020354B72BB93F822205ABB2F6849F0090E3A4602F801CB53F8231F063747F854
:20674000051C1B795FFA8EFE13712F6059E62C4905F0BCFF58E5029B43F0040302939BF8EC
:206760000730402B7FF4FBAD029B43F002030293FEE548F2FE030A8B9A4202D14B8B002B8F
:206780005BD0CE46D5F80080DFF880C008F11007BCE80F002F60C8F80000C8F80410C8F8B0
:2067A0000820C8F80C302CE6029B43F003030293DEE522F00F0C84457FF449AFF3233B7053
:2067C0004B8D0A8D1B0A120A03EB021303F5AA637B70BB1C4EE700BF9C2900200010002036
:2067E0009B29002050150020FC0F0020E4290020202A0020262A0020F8290020F029002084
:206800001C0801007A290020002A0020102A0020138A002B7FF4B8AD538A002B7FF4B4AD70
:20682000938A002B7FF4B0ADD38A002B7FF4ACAD49F040095FFA89F9BEE58B8B002BA0D13A
:20684000CB8B002B9DD11831019AFEF7ABFF40EA09005FFA80FE2F68D3E5F2233B70BBF8FA
:206860002830244A1B0A7B7012883B1D7A8001E7002B87D18B8B002B84D1CB8B002B7FF461
:2068800040AF0B8C002B7FF43CAF4B8C002B7FF438AF8B8C002B7FF434AF91F82630002BEB
:2068A0007FF42FAF2F6891F8273049F00B0E07F8013B5FFA8EFE2F60A3E5F1220E4B3A7071
:2068C0001A883B1DA7F80120BBF82A20120AFA70D0E62A6849F00A0E134603F801CB30F89A
:2068E000251F171D80785FFA8EFEA2F801102F60987086E5222A0020202A0020013A0A4437
:20690000914230B414D20C4625786378023403EB05239BB2184480B2834284BF013080B27E
